{
  "contractName": "Whitelist",
  "abi": [
    {
      "inputs": [
        {
          "internalType": "uint8",
          "name": "_maxWhiteListedAddresses",
          "type": "uint8"
        }
      ],
      "payable": false,
      "stateMutability": "nonpayable",
      "type": "constructor"
    },
    {
      "constant": true,
      "inputs": [],
      "name": "maxWhitelistedAddresses",
      "outputs": [
        {
          "internalType": "uint256",
          "name": "",
          "type": "uint256"
        }
      ],
      "payable": false,
      "stateMutability": "view",
      "type": "function"
    },
    {
      "constant": true,
      "inputs": [],
      "name": "numAddressesWhitelisted",
      "outputs": [
        {
          "internalType": "uint8",
          "name": "",
          "type": "uint8"
        }
      ],
      "payable": false,
      "stateMutability": "view",
      "type": "function"
    },
    {
      "constant": true,
      "inputs": [
        {
          "internalType": "address",
          "name": "",
          "type": "address"
        }
      ],
      "name": "whitelistedAddresses",
      "outputs": [
        {
          "internalType": "bool",
          "name": "",
          "type": "bool"
        }
      ],
      "payable": false,
      "stateMutability": "view",
      "type": "function"
    },
    {
      "constant": true,
      "inputs": [],
      "name": "numberOfWhitelisted",
      "outputs": [
        {
          "internalType": "uint8",
          "name": "",
          "type": "uint8"
        }
      ],
      "payable": false,
      "stateMutability": "view",
      "type": "function"
    },
    {
      "constant": false,
      "inputs": [],
      "name": "addAddressToWhitelist",
      "outputs": [],
      "payable": false,
      "stateMutability": "nonpayable",
      "type": "function"
    }
  ],
  "bytecode": "0x608060405234801561001057600080fd5b506040516103f53803806103f58339818101604052602081101561003357600080fd5b81019080805190602001909291905050508060ff16600081905550506103978061005e6000396000f3fe608060405234801561001057600080fd5b50600436106100575760003560e01c806306c933d81461005c57806331a72188146100b85780634011d7cd146100d65780638e7314d9146100fa578063a92ba3c714610104575b600080fd5b61009e6004803603602081101561007257600080fd5b81019080803573ffffffffffffffffffffffffffffffffffffffff169060200190929190505050610128565b604051808215151515815260200191505060405180910390f35b6100c0610148565b6040518082815260200191505060405180910390f35b6100de61014e565b604051808260ff1660ff16815260200191505060405180910390f35b610102610161565b005b61010c6102f7565b604051808260ff1660ff16815260200191505060405180910390f35b60016020528060005260406000206000915054906101000a900460ff1681565b60005481565b600260009054906101000a900460ff1681565b600160003373ffffffffffffffffffffffffffffffffffffffff1673ffffffffffffffffffffffffffffffffffffffff16815260200190815260200160002060009054906101000a900460ff1615610204576040517f08c379a00000000000000000000000000000000000000000000000000000000081526004018080602001828103825260238152602001806103406023913960400191505060405180910390fd5b600054600260009054906101000a900460ff1660ff1610610270576040517f08c379a000000000000000000000000000000000000000000000000000000000815260040180806020018281038252603181526020018061030f6031913960400191505060405180910390fd5b60018060003373ffffffffffffffffffffffffffffffffffffffff1673ffffffffffffffffffffffffffffffffffffffff16815260200190815260200160002060006101000a81548160ff0219169083151502179055506001600260008282829054906101000a900460ff160192506101000a81548160ff021916908360ff160217905550565b6000600260009054906101000a900460ff1690509056fe4d6f7265206164647265737365732063616e27742062652061646465642e2052656163686564204d61782075736572732e53656e6465722068617320616c7265616479206265656e2077686974656c6973746564a265627a7a723158208446bca218e9055fc950994ebf3fb80af9b1d344aeb2c6687a0c6b1af8f9e90c64736f6c63430005100032",
  "source": "// SPDX-License-Identifier: MIT\npragma solidity >=0.4.22 <0.9.0;\n\ncontract Whitelist {\n  uint public maxWhitelistedAddresses;\n  mapping(address=>bool) public whitelistedAddresses;\n  uint8 public numAddressesWhitelisted;\n\n  constructor(uint8 _maxWhiteListedAddresses) public{\n    maxWhitelistedAddresses = _maxWhiteListedAddresses;\n  }\n\n\n  \n\n  function numberOfWhitelisted() public view returns(uint8){\n      return numAddressesWhitelisted;\n  }\n\n  function addAddressToWhitelist() public{\n      //require if 1. args is false, 2. args is works, else code continue;\n      require(!whitelistedAddresses[msg.sender],\"Sender has already been whitelisted\");\n      require(numAddressesWhitelisted<maxWhitelistedAddresses,\"More addresses can't be added. Reached Max users.\");\n      whitelistedAddresses[msg.sender] = true;\n      numAddressesWhitelisted +=1;\n  }\n}\n",
  "sourcePath": "/home/durmus/Desktop/DApps/Whitelist-Dapp/contracts/Whitelist.sol",
  "compiler": {
    "name": "solc",
    "version": "0.5.16+commit.9c3226ce.Emscripten.clang"
  },
  "schemaVersion": "3.4.6",
  "updatedAt": "2022-05-01T11:13:16.285Z",
  "networkType": "ethereum",
  "devdoc": {
    "methods": {}
  },
  "userdoc": {
    "methods": {}
  }
}